:020000020000FC
:02000000FFC03F
:0200080016C11F
:0200280010C105
:10020000889889988A988B98002700BF0FEF02BBC7
:10021000A39AA79A00E810E00BBF15BF789400E0FE
:100220000DBF02E00EBF05EF0CBF02E009BF44277F
:100230005DE06627FFCF00B300FF03C001FF01C0F0
:1002400003C0AF9A48E053BF18954A954030B1F4C7
:1002500013B317FD03C013FD05C007C0AF9848E1F5
:1002600053BF0CC0AB9863BF09C020B322FF04C0CA
:0E027000AB9A48E053BF02C04CE053BF189554
:00000001FF
